:020000040800F2
:10000000005000200D060008810500088905000841
:100010009105000899050008A105000800000000EE
:10002000000000000000000000000000A90500081A
:10003000B505000800000000C1050008CD05000856
:100040005506000855060008550600085506000824
:1000500055060008D9050008550600085506000891
:1000600055060008E5050008F305000855060008D8
:1000700055060008550600085506000855060008F4
:1000800055060008550600085506000855060008E4
:1000900055060008550600085506000855060008D4
:1000A00055060008550600085506000855060008C4
:1000B00055060008550600085506000855060008B4
:1000C00055060008550600085506000855060008A4
:1000D0005506000855060008550600085506000894
:1000E00055060008550600085506000800000000E7
:1000F0000000000000000000000000000000000000
:0C01000000000000000000005FF808F1A3
:10010C0010B5054C237833B9044B13B10448AFF345
:10011C0000800123237010BD0C00002000000000A3
:10012C00E816000808B5034B1BB103490348AFF3AD
:10013C00008008BD0000000010000020E816000838
:10014C0080B500AF00F082FA00F0ECF800F026F970
:10015C0001F069FA01F022FA224B1B78002B27D010
:10016C00214B1B78002B13D001F018FA0021002032
:10017C0001F01EFA1D4801F06FFA012202211C4801
:10018C0000F07CFD00220521194800F077FDE3E723
:10019C00144B1B78002BDFD001F000FA002100205B
:1001AC0001F006FA134801F057FA00F027F8D3E7EC
:1001BC0001F0F4F90021002001F0FAF90E4801F0E9
:1001CC004BFA002202210A4800F058FD00220121BE
:1001DC00074800F053FD00220421054800F04EFDB5
:1001EC00BAE700BF280000202900002000170008F3
:1001FC00000801400C1700081817000880B584B0DF
:10020C0000AF01220221414800F038FD00220521F7
:10021C003E4800F033FD0021012001F0C9F9012016
:10022C0001F0E5F93A4801F017FA0023FB600DE004
:10023C00322000F06DFA374B1B78002B5DD0364B1B
:10024C001B78002B59D1FB683233FB60FB68B3F58C
:10025C00FA6FEDDB012204212C4800F00FFD002287
:10026C0003212A4800F00AFD0021012001F0A0F929
:10027C00012001F0BCF9294801F0EEF90023BB6024
:10028C000DE0322000F044FA224B1B78002B36D0C4
:10029C00214B1B78002B32D1BB683233BB60BB685F
:1002AC00B3F5FA6FEDDB01220121184800F0E6FCF2
:1002BC0000220621154800F0E1FC0021012001F08C
:1002CC0077F9012001F093F9154801F0C5F90023E5
:1002DC007B600DE0322000F01BFA0E4B1B78002BDC
:1002EC000FD00D4B1B78002B0BD17B6832337B600E
:1002FC007B68B3F5FA6FEDDB04E000BF02E000BFF2
:10030C0000E000BF1037BD4680BD00BF00080140B3
:10031C0024170008280000202900002028170008B6
:10032C003017000880B590B000AF07F118032822F1
:10033C000021184601F0A5F93B1D00221A605A60F5
:10034C009A60DA601A610223BB610123BB6210233D
:10035C00FB6200237B6307F11803184600F0BEFC18
:10036C000346002B01D000F0C5F80F237B6000235F
:10037C00BB600023FB604FF480633B6100237B6117
:10038C003B1D0021184600F02BFF0346002B01D02B
:10039C0000F0B0F800BF4037BD4680BD80B588B0D6
:1003AC0000AF07F1100300221A605A609A60DA60FD
:1003BC003B4B9B693A4A43F020039361384B9B6952
:1003CC0003F02003FB60FB68354B9B69344A43F018
:1003DC0004039361324B9B6903F00403BB60BB685D
:1003EC002F4B9B692E4A43F0080393612C4B9B695E
:1003FC0003F008037B607B6800220721294800F08A
:10040C003DFC002240F28F31274800F037FC0723D7
:10041C003B6101237B610023BB610223FB6107F17C
:10042C00100319461F4800F0A5FA08233B611F4B27
:10043C007B610223BB6107F110031946194800F0D8
:10044C0099FA40F28F333B6101237B610023BB613E
:10045C000223FB6107F110031946134800F08AFAD6
:10046C0010233B61114B7B610223BB6107F110032D
:10047C0019460D4800F07EFA00220121092000F0F7
:10048C0042FA092000F05BFA002200210A2000F059
:10049C003AFA0A2000F053FA00BF2037BD4680BD5F
:1004AC000010024000080140000C01400000111037
:1004BC0080B483B000AF0346FB80FB88082B06D1C9
:1004CC000A4B1B7883F00103DAB2084B1A70FB88D5
:1004DC00102B06D1064B1B7883F00103DAB2044BC8
:1004EC001A7000BF0C37BD4680BC70472900002035
:1004FC002800002080B400AF72B600BF00BFFDE73B
:10050C0080B584B000AF194B9B69184A43F00103C6
:10051C009361164B9B6903F00103BB60BB68134BE3
:10052C00DB69124A43F08053D361104BDB6903F053
:10053C0080537B607B6800220021052000F0E3F9EA
:10054C00052000F0FCF90A4B5B68FB60FB6823F0AC
:10055C00E063FB60FB6843F08063FB60044AFB686C
:10056C00536000BF1037BD4680BD00BF0010024075
:10057C000000014080B400AF00BFFDE780B400AFC5
:10058C0000BFFDE780B400AF00BFFDE780B400AF53
:10059C0000BFFDE780B400AF00BFFDE780B400AF43
:1005AC0000BFBD4680BC704780B400AF00BFBD46E5
:1005BC0080BC704780B400AF00BFBD4680BC7047A4
:1005CC0080B500AF00F088F800BF80BD80B400AFEC
:1005DC0000BFBD4680BC704780B500AF082000F05E
:1005EC0065FB00BF80BD80B500AF102000F05EFB46
:1005FC0000BF80BD80B400AF00BFBD4680BC70475B
:10060C00FFF7F8FF0B480C490C4A002302E0D458C2
:10061C00C4500433C4188C42F9D3094A094C002342
:10062C0001E013600432A242FBD301F033F8FFF770
:10063C0087FD7047000000200C00002064170008A4
:10064C000C00002030000020FEE7000080B500AF59
:10065C00084B1B68074A43F010031360032000F09B
:10066C0047F90F2000F008F8FFF74AFF002318465F
:10067C0080BD00BF0020024080B582B000AF786022
:10068C00124B1A68124B1B7819464FF47A73B3FB52
:10069C00F1F3B2FBF3F3184600F05FF90346002BBD
:1006AC0001D001230EE07B680F2B0AD80022796859
:1006BC004FF0FF3000F027F9064A7B6813600023E7
:1006CC0000E0012318460837BD4680BD000000201D
:1006DC00080000200400002080B400AF054B1B78FC
:1006EC001A46054B1B681344034A136000BFBD46F2
:1006FC0080BC7047080000202C00002080B400AFA4
:10070C00024B1B681846BD4680BC70472C0000206D
:10071C0080B584B000AF7860FFF7F0FFB8607B68FD
:10072C00FB60FB68B3F1FF3F05D00A4B1B781A4600
:10073C00FB681344FB6000BFFFF7E0FF0246BB6899
:10074C00D31AFA689A42F7D800BF00BF1037BD46DB
:10075C0080BD00BF0800002080B485B000AF786079
:10076C007B6803F00703FB600C4BDB68BB60BA686B
:10077C004FF6FF031340BB60FB681A02BB681343C0
:10078C0043F0BF6343F40033BB60044ABB68D360DF
:10079C0000BF1437BD4680BC704700BF00ED00E0C1
:1007AC0080B400AF044BDB681B0A03F00703184648
:1007BC00BD4680BC704700BF00ED00E080B483B044
:1007CC0000AF0346FB7197F90730002B0BDBFB796D
:1007DC0003F01F02064997F907305B09012000FA64
:1007EC0002F241F8232000BF0C37BD4680BC704795
:1007FC0000E100E080B483B000AF03463960FB71C8
:10080C0097F90730002B0ADB3B68DAB20C4997F9F1
:10081C0007301201D2B20B4483F800230AE03B6884
:10082C00DAB20849FB7903F00F03043B1201D2B290
:10083C000B441A7600BF0C37BD4680BC704700BF16
:10084C0000E100E000ED00E080B489B000AFF8609A
:10085C00B9607A60FB6803F00703FB61FB69C3F1C5
:10086C000703042B28BF0423BB61FB690433062B4D
:10087C0002D9FB69033B00E000237B614FF0FF32A0
:10088C00BB6902FA03F3DA43BB681A407B699A40EE
:10089C004FF0FF317B6901FA03F3D9437B680B40BE
:1008AC00134318462437BD4680BC704780B582B0D0
:1008BC0000AF78607B68013BB3F1807F01D30123EB
:1008CC000FE00A4A7B68013B53600F214FF0FF3069
:1008DC00FFF790FF054B00229A60044B07221A6029
:1008EC00002318460837BD4680BD00BF10E000E06D
:1008FC0080B582B000AF78607868FFF72DFF00BF3D
:10090C000837BD4680BD80B586B000AF0346B960E0
:10091C007A60FB7300237B61FFF742FF78617A6892
:10092C00B9687869FFF790FF024697F90F301146C6
:10093C001846FFF75FFF00BF1837BD4680BD80B576
:10094C0082B000AF0346FB7197F907301846FFF7EA
:10095C0035FF00BF0837BD4680BD80B582B000AF03
:10096C0078607868FFF7A2FF034618460837BD4643
:10097C0080BD000080B48BB000AF7860396000237C
:10098C007B6200233B6269E101227B6A02FA03F37A
:10099C00FB613B681B68FA691340BB61BA69FB6970
:1009AC009A4240F058813B685B689A4A93425ED009
:1009BC00984A934275D8984A934258D0964A934293
:1009CC006FD8964A934252D0944A934269D8944A2B
:1009DC0093424CD0924A934263D8924A934246D067
:1009EC00904A93425DD8122B2AD8122B59D801A2C7
:1009FC0052F823F07B0A0008550A0008670A000821
:100A0C00A90A0008AF0A0008AF0A0008AF0A0008DC
:100A1C00AF0A0008AF0A0008AF0A0008AF0A0008C6
:100A2C00AF0A0008AF0A0008AF0A0008AF0A0008B6
:100A3C00AF0A0008AF0A00085D0A0008710A000836
:100A4C00794A934213D02CE03B68DB683B6229E087
:100A5C003B68DB6804333B6224E03B68DB680833AB
:100A6C003B621FE03B68DB680C333B621AE03B687F
:100A7C009B68002B02D104233B6213E03B689B680C
:100A8C00012B05D108233B627B68FA691A6109E0E6
:100A9C0008233B627B68FA695A6103E000233B62DE
:100AAC0000E000BFBB69FF2B01D87B6801E07B68CD
:100ABC0004337B61BB69FF2B02D87B6A9B0002E08D
:100ACC007B6A083B9B003B617B691A680F213B6981
:100ADC0001FA03F3DB431A40396A3B6901FA03F369
:100AEC001A437B691A603B685B6803F08053002BE8
:100AFC0000F0B1804D4B9B694C4A43F0010393616C
:100B0C004A4B9B6903F00103BB60BB68484A7B6A94
:100B1C009B08023352F82330FB607B6A03F003031B
:100B2C009B000F2202FA03F3DB43FA681340FB60CD
:100B3C007B68404A934213D07B683F4A93420DD066
:100B4C007B683E4A934207D07B683D4A934201D171
:100B5C00032306E0042304E0022302E0012300E067
:100B6C0000237A6A02F0030292009340FA6813435E
:100B7C00FB602F497B6A9B080233FA6841F82320FB
:100B8C003B685B6803F48013002B06D02D4B9A68EE
:100B9C002C49BB6913438B6006E02A4B9A68BB69EE
:100BAC00DB43284913408B603B685B6803F40013FC
:100BBC00002B06D0234BDA682249BB691343CB6068
:100BCC0006E0204BDA68BB69DB431E491340CB605F
:100BDC003B685B6803F40033002B06D0194B5A6852
:100BEC001849BB6913434B6006E0164B5A68BB6946
:100BFC00DB43144913404B603B685B6803F4803360
:100C0C00002B21D00F4B1A680E49BB6913430B60A4
:100C1C0021E000BF00003210000031100000221053
:100C2C0000002110000012100000111000100240F2
:100C3C000000014000080140000C01400010014080
:100C4C0000140140000401400B4B1A68BB69DB43E4
:100C5C00094913400B607B6A01337B623B681A685D
:100C6C007B6A22FA03F3002B7FF48EAE00BF00BF29
:100C7C002C37BD4680BC70470004014080B483B063
:100C8C0000AF78600B467B8013467B707B78002B23
:100C9C0003D07A887B681A6103E07B881A047B682E
:100CAC001A6100BF0C37BD4680BC704780B582B05E
:100CBC0000AF0346FB80084B5A69FB881340002B9E
:100CCC0006D0054AFB885361FB881846FFF7F0FBFA
:100CDC0000BF0837BD4680BD0004014080B586B01A
:100CEC0000AF78607B68002B01D1012372E27B6836
:100CFC001B6803F00103002B00F08780924B5B68AC
:100D0C0003F00C03042B0CD08F4B5B6803F00C032B
:100D1C00082B12D18C4B5B6803F48033B3F5803F06
:100D2C000BD1894B1B6803F40033002B6CD07B6810
:100D3C005B68002B68D101234CE27B685B68B3F5E0
:100D4C00803F06D1804B1B687F4A43F4803313608D
:100D5C002EE07B685B68002B0CD17B4B1B687A4ABE
:100D6C0023F480331360784B1B68774A23F4802379
:100D7C0013601DE07B685B68B3F5A02F0CD1724B40
:100D8C001B68714A43F4802313606F4B1B686E4AD7
:100D9C0043F4803313600BE06B4B1B686A4A23F4FB
:100DAC0080331360684B1B68674A23F480231360FD
:100DBC007B685B68002B13D0FFF7A0FC386108E060
:100DCC00FFF79CFC02463B69D31A642B01D9032321
:100DDC0000E25D4B1B6803F40033002BF0D014E0F1
:100DEC00FFF78CFC386108E0FFF788FC02463B6992
:100DFC00D31A642B01D90323ECE1534B1B6803F486
:100E0C000033002BF0D100E000BF7B681B6803F0BF
:100E1C000203002B63D04C4B5B6803F00C03002BDC
:100E2C000BD0494B5B6803F00C03082B1CD1464BD1
:100E3C005B6803F48033002B16D1434B1B6803F023
:100E4C000203002B05D07B681B69012B01D0012309
:100E5C00C0E13D4B1B6823F0F8027B685B69DB004B
:100E6C00394913430B603AE07B681B69002B20D097
:100E7C00364B01221A60FFF741FC386108E0FFF79E
:100E8C003DFC02463B69D31A022B01D90323A1E195
:100E9C002D4B1B6803F00203002BF0D02A4B1B6870
:100EAC0023F0F8027B685B69DB00274913430B6076
:100EBC0015E0264B00221A60FFF720FC386108E091
:100ECC00FFF71CFC02463B69D31A022B01D9032302
:100EDC0080E11D4B1B6803F00203002BF0D17B68F3
:100EEC001B6803F00803002B3AD07B689B69002B2E
:100EFC0019D0174B01221A60FFF700FC386108E08B
:100F0C00FFF7FCFB02463B69D31A022B01D90323E2
:100F1C0060E10D4B5B6A03F00203002BF0D0012063
:100F2C0000F09CFA1CE00A4B00221A60FFF7E6FB6B
:100F3C0038610FE0FFF7E2FB02463B69D31A022B44
:100F4C0008D9032346E100BF0010024000004242D2
:100F5C0080044242924B5B6A03F00203002BE9D1FE
:100F6C007B681B6803F00403002B00F0A6800023B1
:100F7C00FB758B4BDB6903F08053002B0DD1884B39
:100F8C00DB69874A43F08053D361854BDB6903F0FF
:100F9C008053BB60BB680123FB75824B1B6803F459
:100FAC008073002B18D17F4B1B687E4A43F48073EF
:100FBC001360FFF7A3FB386108E0FFF79FFB0246C5
:100FCC003B69D31A642B01D9032303E1754B1B68CE
:100FDC0003F48073002BF0D07B68DB68012B06D107
:100FEC006F4B1B6A6E4A43F0010313622DE07B6862
:100FFC00DB68002B0CD16A4B1B6A694A23F0010396
:10100C001362674B1B6A664A23F0040313621CE0ED
:10101C007B68DB68052B0CD1614B1B6A604A43F083
:10102C00040313625E4B1B6A5D4A43F001031362B7
:10103C000BE05B4B1B6A5A4A23F001031362584BBB
:10104C001B6A574A23F0040313627B68DB68002B8E
:10105C0015D0FFF753FB38610AE0FFF74FFB024650
:10106C003B69D31A41F28832934201D90323B1E090
:10107C004B4B1B6A03F00203002BEED014E0FFF77E
:10108C003DFB38610AE0FFF739FB02463B69D31A96
:10109C0041F28832934201D903239BE0404B1B6AF7
:1010AC0003F00203002BEED1FB7D012B05D13C4B51
:1010BC00DB693B4A23F08053D3617B68DB69002BEF
:1010CC0000F08780364B5B6803F00C03082B61D073
:1010DC007B68DB69022B46D1334B00221A60FFF789
:1010EC000DFB386108E0FFF709FB02463B69D31A98
:1010FC00022B01D903236DE0294B1B6803F000730D
:10110C00002BF0D17B681B6AB3F5803F08D1244BD0
:10111C005B6823F400327B689B68214913434B6066
:10112C001F4B5B6823F474127B68196A7B685B6ADB
:10113C000B431B4913434B601B4B01221A60FFF7F7
:10114C00DDFA386108E0FFF7D9FA02463B69D31A99
:10115C00022B01D903233DE0114B1B6803F00073F4
:10116C00002BF0D035E0104B00221A60FFF7C6FAC6
:10117C00386108E0FFF7C2FA02463B69D31A022B2A
:10118C0001D9032326E0064B1B6803F00073002BE8
:10119C00F0D11EE07B68DB69012B07D1012319E03C
:1011AC000010024000700040600042420B4B5B6834
:1011BC00FB60FB6803F480327B681B6A9A4206D1A1
:1011CC00FB6803F470127B685B6A9A4201D00123BE
:1011DC0000E0002318461837BD4680BD00100240C1
:1011EC0080B584B000AF786039607B68002B01D18A
:1011FC000123D0E06A4B1B6803F007033A689A425C
:10120C0010D9674B1B6823F0070265493B681343F1
:10121C000B60634B1B6803F007033A689A4201D0DA
:10122C000123B8E07B681B6803F00203002B20D07D
:10123C007B681B6803F00403002B05D0594B5B68DB
:10124C00584A43F4E06353607B681B6803F008035F
:10125C00002B05D0534B5B68524A43F460535360E8
:10126C00504B5B6823F0F0027B689B684D4913433D
:10127C004B607B681B6803F00103002B40D07B683C
:10128C005B68012B07D1474B1B6803F40033002B21
:10129C0015D101237FE07B685B68022B07D1414BA2
:1012AC001B6803F00073002B09D1012373E03D4B45
:1012BC001B6803F00203002B01D101236BE0394BB7
:1012CC005B6823F003027B685B68364913434B6011
:1012DC00FFF714FAF8600AE0FFF710FA0246FB6811
:1012EC00D31A41F28832934201D9032353E02D4B98
:1012FC005B6803F00C027B685B689B009A42EBD145
:10130C00274B1B6803F007033A689A4210D2244B10
:10131C001B6823F0070222493B6813430B60204BE8
:10132C001B6803F007033A689A4201D0012332E0AC
:10133C007B681B6803F00403002B08D0194B5B6817
:10134C0023F4E0627B68DB68164913434B607B68CF
:10135C001B6803F00803002B09D0124B5B6823F4C5
:10136C0060527B681B69DB000E4913434B6000F035
:10137C0021F802460B4B5B681B0903F00F030A496B
:10138C00CB5C22FA03F3094A1360094B1B6818461D
:10139C00FFF772F9002318461037BD4680BD00BF19
:1013AC000020024000100240381700080000002006
:1013BC000400002080B487B000AF0023FB60002342
:1013CC00BB6000237B6100237B6000233B611E4BD1
:1013DC005B68FB60FB6803F00C03042B02D0082B4A
:1013EC0003D027E0194B3B6127E0FB689B0C03F013
:1013FC000F03174AD35C7B60FB6803F48033002B2C
:10140C0010D0114B5B685B0C03F00103114AD35CE9
:10141C00BB607B680D4A03FB02F2BB68B2FBF3F3C3
:10142C007B6104E07B680C4A02FB03F37B617B6904
:10143C003B6102E0054B3B6100BF3B6918461C3722
:10144C00BD4680BC704700BF0010024000127A00FD
:10145C00481700085817000800093D0080B485B0F3
:10146C0000AF78600A4B1B680A4AA2FB03235B0A95
:10147C007A6802FB03F3FB6000BFFB685A1EFA603C
:10148C00002BF9D100BF00BF1437BD4680BC70479C
:10149C0000000020D34D621080B582B000AF03462F
:1014AC003960FB713B68DBB21A464FF4007120487F
:1014BC00FFF7E4FBFB79DB08DBB203F00103DBB2E3
:1014CC001A4601211A48FFF7D9FBFB799B08DBB2BE
:1014DC0003F00103DBB21A4602211548FFF7CEFBDD
:1014EC00FB795B08DBB203F00103DBB21A46042183
:1014FC000F48FFF7C3FBFB7903F00103DBB21A467D
:10150C0008210B48FFF7BAFB012280210848FFF79E
:10151C00B5FB0A20FFF7FCF8002280210448FFF7F6
:10152C00ADFB0A20FFF7F4F800BF0837BD4680BDBD
:10153C00000C014080B584B000AF0346FB71FB7911
:10154C001B09FB73FB7B00211846FFF7A5FFFB79FA
:10155C0003F00F03FB73FB7B00211846FFF79CFF86
:10156C0000BF1037BD4680BD80B584B000AF0346C8
:10157C00FB71FB791B09FB73FB7B01211846FFF701
:10158C008BFFFB7903F00F03FB73FB7B01211846E8
:10159C00FFF782FF00BF1037BD4680BD80B500AF9E
:1015AC000120FFF7C7FF0220FFF7B2F800BF80BD94
:1015BC0080B582B000AF786039607B68002B03D0B7
:1015CC007B68012B05D009E03B6843F080033B604E
:1015DC0004E03B6843F0C0033B6000BF3B68DBB2F8
:1015EC001846FFF7A7FF00BF0837BD4680BD80B582
:1015FC0084B000AF786000217868FFF7D9FF002332
:10160C00FB6005E02020FFF7AFFFFB680133FB60B8
:10161C00FB680F2BF6DD00217868FFF7C9FF00BFD0
:10162C001037BD4680BD80B500AF0A20FFF770F8BB
:10163C000220FFF77FFF2820FFF77CFF0820FFF731
:10164C0079FF0120FFF776FF0620FFF773FF0C20D0
:10165C00FFF770FF00BF80BD80B582B000AF78602F
:10166C0006E07B685A1C7A601B781846FFF77CFFF3
:10167C007B681B78002BF4D100BF00BF0837BD4638
:10168C0080BD03460244934200D1704703F8011B0E
:10169C00F9E7000070B500260C4D0D4C641BA4102E
:1016AC00A64209D100F01AF800260A4D0A4C641B18
:1016BC00A410A64205D170BD55F8043B98470136DD
:1016CC00EEE755F8043B98470136F2E75C17000843
:1016DC005C1700085C17000860170008F8B500BF1D
:1016EC00F8BC08BC9E467047F8B500BFF8BC08BCF7
:0416FC009E4670474F
:10170000656D657267656E6379000000747261666D
:10171000666963206F6E000074726166666963209B
:101720004F4646005245440059454C4C4F57000027
:10173000475245454E000000000000000000000038
:101740000102030406070809020304050607080945
:0C1750000A0B0C0D0E0F1010010200001F
:04175C00310100084F
:041760000D0100086F
:0C17640000127A001000000001000000DC
:040000050800060DDC
:00000001FF
